:040000000128002CA7
:1007FA000734FF347E34103084008630850034306C
:10080A008600003087000830182620308400003027
:10081A00850014301E262000122C2426FD30840068
:10082A008330850000080F39A038FC007C082000BE
:10083A00B600FE308400833085000008FC007C0886
:10084A00B700FF308400833085000008FC007C0874
:10085A00B800B901640020008C1C352CB917392C5A
:10086A007F30FC007C08B905FF30FC007C08BC0026
:10087A008C1C412CBC17452C7F30FC007C08BC0525
:10088A0039083C05FC007C08B9000230C62571080D
:10089A002000A1007008A0000130210200300319D5
:1008AA00200203185D2CBF30FC007C08B905622CBD
:1008BA0039172108A3002008A20001302302F430CE
:1008CA000319220203186B2CB9156F2CF730FC00A0
:1008DA007C08B9053A30FC007C08F0000430FD00C1
:1008EA007D08F100363087242430FC007C08F000B3
:1008FA000830FD007D08F1003430F82424306125E9
:10090A0063002F2CF700FA01FB01F8017108780245
:10091A000318D82C78087707F20072088600870136
:10092A000108F300F4017308F5007408F60076086C
:10093A00F3007508F200F20EF30EF030F3057208B8
:10094A000F39F304F030F2057208FA067308FB0651
:10095A00F901083079020318D32CFB1DBF2C7A3514
:10096A00FA007B0DFB0005307A06F20008307B06A0
:10097A00F300C52C7B08F3007A08F200F235F30D78
:10098A00FF307205FA000F307305FB000130F200E8
:10099A007208F90708307902031CB22C0130F20000
:1009AA007208F8078B2C7B08F3007A08F200F20E23
:1009BA00F30EF030F30572080F39F304F030F20544
:1009CA007208FA007308FB007B08F20070088600C0
:1009DA008701720881007A08F200700A860087018E
:1009EA00720881000800F400F601F5017108750229
:1009FA0003180800F701F80175087407F200720875
:100A0A00860087010108F3007308F900FA0104302F
:100A1A007A020318442DF91F142D7714152DF71493
:100A2A0003307A020318242D7708F2000130F235D8
:100A3A00FF3E031D1C2D7235F3007308F700F91DE4
:100A4A00282D7814292DF81403307A020318382D2A
:100A5A007808F2000130F235FF3E031D302D723561
:100A6A00F3007308F8007935F2007208F9000130D2
:100A7A00F2007208FA0704307A02031C102D770874
:100A8A00F20076087007F30073088600870172087F
:100A9A0081007808F20076087007F300730A86006E
:100AAA008701720881000230F2007208F6070130ED
:100ABA00F2007208F507FB2CF600FA01F80106307D
:100ACA007802031808007D30E02522000C160A304F
:100ADA00E025FB0110307B020318AE2D7B08760758
:100AEA00F4007408860087010108F5007508F9000A
:100AFA00F701083077020318A62DF91F902D22005E
:100B0A008C160630E0257A0803198D2D0530E0256C
:100B1A00FA01FA0A9A2D22008C127A08031D972DDF
:100B2A000B30982D1130E025FA017935F40074085C
:100B3A00F9000130F4007408F70708307702031C43
:100B4A00822D0130F4007408FB0710307B02031C6D
:100B5A00732D0A30E02522000C12FB0122307B02A1
:100B6A000318C12DFA30E0250130F4007408FB07A0
:100B7A0022307B02031CB72D0130F4007408F807F9
:100B8A00642DF3007308F200F20DF20D21001D0826
:100B9A007206833972069D001D140330F200F20BAF
:100BAA00D42D21009D149D18D82D1D101C08F1006C
:100BBA001B08F0000800F100F20171087202031824
:100BCA000800F3017308031DF22D00000130F00044
:100BDA007008F30773080319EA2D0130F000700852
:100BEA00F207E22D22008C010F3021008C00143014
:100BFA0023008C003F3024008C0021009513220032
:100C0A009D010800083021009D0083309E009F014D
:100C1A009B019C010800FF34FE3400340034003488
:100C2A00003400340034FE0012001E00FE0B192EA0
:100C3A000034640080010131890B1F2E0034F7252E
:100C4A002A262F260726332608007230210099000B
:100C5A009801080014302100970008008230220011
:040C6A0097000800E7
:020000040001F9
:04000E00DCFFFFF61E
:00000001FF
