:040000000128EB2BBD
:10044E0043222A2208007A302100990098010800E0
:10045E00640080010131890B302A0034FE00120045
:10046E001E00FE0B362A0034FF34FE3400340034F6
:10047E00003400340034003422008C0123008C013F
:10048E00073024008C000F3021008C0095132200C1
:10049E009D018B110800F100F20171087202031820
:1004AE000800F3017308031D642A00000130F000F8
:1004BE007008F307730803195C2A0130F000700806
:1004CE00F207542A27221430FC007C0821008C04E9
:1004DE001430FC007C0824008C04FD308400833032
:1004EE00850000080F39A038FC007C082000B200FF
:1004FE00FE308400833085000008FC007C08B300C9
:10050E00FF308400833085000008FC007C08B400B6
:10051E002000B5010C1EB5170C1D35173630FC002A
:10052E007C08F0000430FD007D08F10032307A23A3
:10053E002030FC007C08F0000830FD007D08F10042
:10054E00303011232030AC228F2AF600FA01F80148
:10055E000630780203180800FA30522222000C16D8
:10056E0014305222FB0110307B020318F92A7B084B
:10057E007607F4007408860087010108F5007508F7
:10058E00F900F701083077020318F12AF91FDB2A68
:10059E0022008C160D3052227A080319D82A0A30FE
:1005AE005222FA01FA0AE52A22008C127A08031D59
:1005BE00E22A1630E32A22305222FA017935F4006B
:1005CE007408F9000130F4007408F7070830770258
:1005DE00031CCD2A0130F4007408FB0710307B0297
:1005EE00031CBE2A1430522222000C12FB010F30C3
:1005FE007B0203180C2BFA3052220130F4007408DF
:10060E00FB070F307B02031C022B0130F400740831
:10061E00F807AF2AF400F601F50171087502031808
:10062E000800F701F80175087407F20072088600D9
:10063E0087010108F3007308F900FA0104307A0209
:10064E0003185D2BF91F2D2B77142E2BF714033067
:10065E007A0203183D2B7708F2000130F235FF3E87
:10066E00031D352B7235F3007308F700F91D412B6E
:10067E007814422BF81403307A020318512B7808A1
:10068E00F2000130F235FF3E031D492B7235F300A7
:10069E007308F8007935F2007208F9000130F200A3
:1006AE007208FA0704307A02031C292B7708F2002D
:1006BE0076087007F30073088600870172088100C0
:1006CE007808F20076087007F300730A8600870137
:1006DE00720881000230F2007208F6070130F20053
:1006EE007208F507142BF700FA01FB01F8017108E7
:1006FE0078020318CB2B78087707F2007208860071
:10070E0087010108F300F4017308F5007408F60080
:10071E007608F3007508F200F20EF30EF030F305D2
:10072E0072080F39F304F030F2057208FA067308F6
:10073E00FB06F901083079020318C62BFB1DB22BFC
:10074E007A35FA007B0DFB0005307A06F200083090
:10075E007B06F300B82B7B08F3007A08F200F23523
:10076E00F30DFF307205FA000F307305FB000130F8
:10077E00F2007208F90708307902031CA52B01302C
:10078E00F2007208F8077E2B7B08F3007A08F2005D
:10079E00F20EF30EF030F30572080F39F304F03059
:1007AE00F2057208FA007308FB007B08F20070086D
:1007BE0086008701720881007A08F200700A8600AE
:1007CE0087017208810008003B308400823085006A
:1007DE00303086000030870008303522203084000B
:1007EE000030850010302F222000692A0F34673424
:0207FE00323493
:020000040001F9
:04000E00E4FFFFFF0D
:00000001FF
